:100000000C9470000C9498000C9498000C94980038
:100010000C9498000C9498000C9498000C94980000
:100020000C9498000C9498000C9498000C949800F0
:100030000C9498000C948B030C9498000C949800EA
:100040000C94E9020C9498000C9459030C9433031B
:100050000C9498000C9498000C9498000C949800C0
:100060000C9498000C9498000000000023002600D7
:1000700029000001020304051112131415160A0BBE
:100080000C0D0E0F656C6F2C206D696E6900000001
:100090000008000201000003040700000000000047
:1000A000000000000000250028002B0000000000D8
:1000B000240027002A0004040404040404040202A7
:1000C00002020202030303030303010204081020D7
:1000D0004080010204081020010204081020960D3F
:1000E00011241FBECFEFD8E0DEBFCDBF23E0AEE1CD
:1000F000B1E001C01D92A736B207E1F711E0A0E020
:10010000B1E0EEEAFCE102C005900D92AE31B1071C
:10011000D9F710E0C0E7D0E004C02197FE010E94AB
:100120002F0ECF36D107C9F70E94AF0A0C94550E97
:100130000C9400008230910538F0880F991F880FC9
:10014000991F05970197F1F70895833081F028F4FE
:10015000813099F08230A1F008958730A9F088307D
:10016000B9F08430D1F4809180008F7D03C08091FC
:1001700080008F7780938000089584B58F7702C0C8
:1001800084B58F7D84BD08958091B0008F7703C0C2
:100190008091B0008F7D8093B00008951F93CF931E
:1001A000DF93282F30E0F901E257FF4F8491F901E6
:1001B000E653FF4FD491F901EA54FF4FC491CC2389
:1001C000C1F0162F81110E94A500EC2FF0E0EE0F78
:1001D000FF1FEE55FF4FA591B4919FB7F8941111F1
:1001E00004C08C91D095D82302C0EC91DE2BDC9317
:1001F0009FBFDF91CF911F9108953FB7F8948091F1
:100200002C0190912D01A0912E01B0912F0126B5C6
:10021000A89B05C02F3F19F00196A11DB11D3FBF3E
:10022000BA2FA92F982F8827820F911DA11DB11DCC
:10023000BC01CD0142E0660F771F881F991F4A95C8
:10024000D1F708958F929F92AF92BF92CF92DF9293
:10025000EF92FF926B017C010E94FD004B015C015B
:10026000C114D104E104F104F1F00E94FD00DC01AD
:10027000CB0188199909AA09BB09883E9340A105B9
:10028000B10570F321E0C21AD108E108F10888EE47
:10029000880E83E0981EA11CB11CC114D104E10496
:1002A000F10419F7DDCFFF90EF90DF90CF90BF9072
:1002B000AF909F908F900895CF92DF92EF92FF9230
:1002C0000F931F93CF93DF936C017A018B01C0E0F2
:1002D000D0E0CE15DF0581F0D8016D918D01D601FA
:1002E000ED91FC910190F081E02DC6010995892BDB
:1002F00011F02196EECF7E01C701DF91CF911F91C2
:100300000F91FF90EF90DF90CF900895089580E0D7
:1003100090E00895FC01538D448D252F30E0842F0B
:1003200090E0821B930B541710F0CF96089501971D
:100330000895FC01918D828D981761F0828DDF0107
:10034000A80FB11D5D968C91928D9F5F9F73928FC8
:1003500090E008958FEF9FEF0895FC01918D828DBD
:10036000981731F0828DE80FF11D858D90E008958A
:100370008FEF9FEF0895FC01918D228D892F90E0E2
:10038000805C9F4F821B91098F739927089580E3AA
:1003900091E00E94BB0121E0892B09F420E0822F2B
:1003A0000895FC01848DDF01A80FB11DA35ABF4F32
:1003B0002C91848D90E001968F739927848FA68964
:1003C000B7892C93A089B1898C91837080648C93B8
:1003D000938D848D981306C00288F389E02D808167
:1003E0008F7D80830895EF92FF920F931F93CF9399
:1003F000DF93EC0181E0888F9B8D8C8D981305C075
:10040000E889F989808185FD26C0F62E0B8D10E0E4
:100410000F5F1F4F0F731127E02E8C8DE8120CC059
:100420000FB607FCFACFE889F989808185FFF5CFFF
:10043000CE010E94D101F1CF8B8DFE01E80FF11D9D
:10044000E35AFF4FF0829FB7F8940B8FEA89FB893C
:10045000808180620AC09FB7F894EE89FF8960832B
:10046000E889F98980818370806480839FBF81E0FF
:1004700090E0DF91CF911F910F91FF90EF90089541
:10048000CF93DF93EC01888D8823C9F0EA89FB893B
:10049000808185FD05C0A889B9898C9186FD0FC032
:1004A0000FB607FCF5CF808185FFF2CFA889B98907
:1004B0008C9185FFEDCFCE010E94D101E7CFDF9176
:1004C000CF91089580E090E0892B29F00E94C70128
:1004D00081110C9400000895CF93DF93EC018CB54B
:1004E0008F7D8CBD8CB5837F8CBD8CB58C7F8CBD96
:1004F0008DB581608DBD8A810E94CE008C899D89D9
:10050000DF91CF910C949A00CF93DF93E7E9F0E06D
:100510008491E3EDF0E0D491EFEBF0E0C491CC23D3
:1005200079F081110E94A500EC2FF0E0EE0FFF1F83
:10053000E859FF4FA591B491EC91ED2361E009F4E6
:1005400060E081E0682789E0DF91CF910C94CE00D4
:10055000CF93CFB7F89480911E01811124C0E0ECB5
:10056000F0E08491E4EDF0E09491E82FF0E0EE0FFC
:10057000FF1FE455FF4FA591B491EC91E92321F4BD
:1005800061E08AE00E94CE008AE00E94C3078CB539
:1005900080618CBD8CB580648CBD8DE00E94C307EA
:1005A0008BE00E94C30780911E018F5F80931E0124
:1005B000CFBFCF9108950E94350E2FB7F894609168
:1005C00028017091290180912A0190912B012FBF60
:1005D00008951F920F920FB60F9211242F933F93FD
:1005E0008F939F93AF93BF9380912801909129019E
:1005F000A0912A01B0912B013091270123E0230F14
:100600002D3720F40196A11DB11D05C026E8230F4A
:100610000296A11DB11D209327018093280190937C
:100620002901A0932A01B0932B0180912C01909174
:100630002D01A0912E01B0912F010196A11DB11D98
:1006400080932C0190932D01A0932E01B0932F0144
:10065000BF91AF919F918F913F912F910F900FBEBE
:100660000F901F9018951F920F920FB60F921124A2
:100670002F933F934F935F936F937F938F939F93AA
:10068000AF93BF93EF93FF9380E391E00E94D1017A
:10069000FF91EF91BF91AF919F918F917F916F915A
:1006A0005F914F913F912F910F900FBE0F901F9030
:1006B00018951F920F920FB60F9211242F938F93BC
:1006C0009F93EF93FF93E0914001F091410180816E
:1006D000E0914601F091470182FD12C09081809126
:1006E00049018F5F8F7320914A01821751F0E09189
:1006F0004901F0E0E05DFE4F958F8093490101C014
:100700008081FF91EF919F918F912F910F900FBE5C
:100710000F901F9018951F920F920FB60F921124F1
:100720002F933F934F935F936F937F938F939F93F9
:10073000AF93BF93EF93FF93E0911F01F0912001DE
:100740000995FF91EF91BF91AF919F918F917F910B
:100750006F915F914F913F912F910F900FBE0F902E
:100760001F90189561E00C946C0260E00C946C0290
:10077000FC0120813181828193812817390719F08A
:10078000822F0C94CE0008958EBD00000DB407FE9C
:10079000FDCF8EB508951F93CF93DF93EC01162FF5
:1007A0000E94B503812F0E94C403182FCE010E941E
:1007B000B203812FDF91CF911F91089561EE0C94C8
:1007C000CB030F931F93CF93DF938C01C62FD42FAE
:1007D0000E94B5038C2F8F7180620E94C403C82FC2
:1007E0008D2F0E94C403C8010E94B2038C2FDF9199
:1007F000CF911F910F910895CF92DF92EF92FF92C8
:100800000F931F93CF93DF937C01162F6A01C22FA2
:100810000E94B503812F8F7180620E94C403D82F7C
:100820008601CC2339F0F80181918F010E94C40325
:10083000C150F7CFC7010E94B2038D2FDF91CF9136
:100840001F910F91FF90EF90DF90CF9008951F932D
:10085000CF93DF93EC01162F0E94B503812F8F7188
:100860000E94C4038FEF0E94C403182FCE010E9480
:10087000B203812FDF91CF911F910895CF93DF9322
:10088000EC0160E00E94270481FD0EC0482F426009
:1008900060E0CE010E94E10365E070E080E090E05E
:1008A000DF91CF910C942201DF91CF910895CF93E6
:1008B000DF93EC0160E00E94B803888999890E9467
:1008C0009A006DE1CE010E94270481FF07C088894C
:1008D00099890E949A00CE010E94DE0360E0CE0159
:1008E0000E942704482F4E7F60E0CE010E94E10362
:1008F00062E0CE010E942704E2E7F0E0E49141E0EB
:1009000050E001C0440FEA95EAF7482B62E0CE01BF
:10091000DF91CF910C94E103CF93DF93EC010E9420
:100920003E0460E0CE010E942704482F416060E051
:10093000CE010E94E10340E767E0CE010E94E1039F
:1009400061E0CE010E94B8038985882349F02E8595
:10095000AE01475F5F4F6AE0CE010E94FC0314C006
:1009600062E0CE010E942704E2E7F0E0E49121E09A
:1009700030E001C0220FEA95EAF72095422F482384
:1009800062E0CE010E94E1036DE1CE010E942704E6
:1009900081FF05C0CE01DF91CF910C94DE03DF9182
:1009A000CF910895CF92DF92EF92FF920F931F9312
:1009B000CF93DF9300D000D0CDB7DEB79C012115D7
:1009C000310561F0422F4770463030F443E03695F0
:1009D00027954A95E1F7F3CF80E09AC0162F7C0166
:1009E0000091E201015419821A821B821C829A83AF
:1009F00089836B83CE0101960E942F094C816B8104
:100A000089819A810E945108113041F5811102C0FB
:100A100010E030C089819A81E816F90609F50F3790
:100A2000F8F481EC8093E2018091DC019091DD018A
:100A30009093DF018093DE019A8389831B831C825C
:100A4000CE0101960E942F0988E0809309024C8113
:100A50006B8189819A810E94510802C08823C1F26A
:100A600089819A81E816F90621F0112379F0133073
:100A700069F011E08091FF0182FD06C080910402BF
:100A8000909105020E948C04812F42C00F3788F795
:100A90008091FF0182FF1AC04091D6015091D70189
:100AA0006091D8017091D901809104029091050262
:100AB0000E94E2078091FF018B7F8093FF0160E03D
:100AC00080910402909105020E94AE078091040279
:100AD000909105020E948C040E94DD026B017C0152
:100AE0000E949505813C29F20E94DD02AB01BC0108
:100AF0004C195D096E097F098091DA019091DB0143
:100B0000A0E0B0E084179507A607B70748F780CFA5
:100B10000F900F900F900F90DF91CF911F910F9139
:100B2000FF90EF90DF90CF9008952F923F924F92D9
:100B30005F926F927F928F929F92AF92BF92CF926D
:100B4000DF92EF92FF920F931F93CF93DF9300D02A
:100B500000D0CDB7DEB79091FF01892F827091FD53
:100B600014C02091A4023091A50290FD06C0A901F5
:100B70004A5052404937510544F02A50324011F052
:100B800008F082C19E7F9093FF010E94DD024B011D
:100B90005C0100E078E5272E72E0372E4424439470
:100BA000512CFBE7EF2EF5E2FF2EA4E2CA2EA9E0BE
:100BB000DA2E80910402909105029A838983FC01C8
:100BC000808191818F3F910501F1828193818F3FD7
:100BD0009105D9F067E189819A810E942704182F35
:100BE000117080FD12C06FEF89819A810E94CB0342
:100BF0000E94DD02DC01CB0188199909AA09BB0911
:100C0000883E9340A105B10510F0802F3DC1209191
:100C10000402309105023A832983C9010E94B50379
:100C200080E60E94C4038FEF0E94C403782E89815E
:100C30009A810E94B20330E2371560F462EE898136
:100C40009A810E94CB0362E070E080E090E00E9415
:100C5000220101C0172D10930902183038F46AE000
:100C600070E080E090E00E942201A3CF8091040216
:100C7000909105029C838B83FC018781682E181755
:100C800008F4612EEB81FC819085911103C0182F2F
:100C9000161901C010E08B819C810E94B50381E68A
:100CA0000E94C4032CED31E03A8329836A943FEF1C
:100CB000631649F08FEF0E94C403E981FA818193A2
:100CC000FA83E983F3CF112329F08FEF0E94C40345
:100CD0001150F9CF8B819C810E94B20340E767E0FD
:100CE0008B819C810E94E1038091DE019091DF0164
:100CF0009C012115310559F0422F4770463008F00C
:100D000058CF63E0369527956A95E1F7F2CF0091C9
:100D1000E20120910702309108028217930709F03F
:100D200041C0023809F445CF003889F48432994033
:100D3000F1F0D092DF01C092DE0162E084E299E03E
:100D40000E94D2046AE070E080E090E04BC0033C77
:100D500071F4009761F09093DD018093DC011092B3
:100D6000DF011092DE0160E080E090E08AC08091B7
:100D7000FE01882319F007FF0CC002C0013C49F4B2
:100D80008CE6800F833028F0083C19F0033809F016
:100D90003CCF8CED91E00E946C09823009F009CFC4
:100DA00083E872C08034910509F06AC0023C11F5F5
:100DB0008091FF0183FDFDCE243249E0340709F420
:100DC000F8CE8091DC019091DD019093DF0180935A
:100DD000DE013093DD012093DC016091440370E07B
:100DE00080E090E00E94220162E08091DE0190911B
:100DF000DF0147C08CED91E00E946C0989838091EE
:100E0000D5018823C1F180910702909108029C01CD
:100E100053E0369527955A95E1F7232B19F0F70102
:100E20003197F1F783709927FC01E29DC001E39DA2
:100E3000900DF29D900D11240E949A00809106025F
:100E4000882379F090E001979C01220F331F820FD5
:100E5000931F920102C0220F331F8A95E2F7C90146
:100E600002C080E090E064E023E0880F991F2A959B
:100E7000E1F70E94D2043981323009F09ACE90CF46
:100E800061E00E94D20495CE0F900F900F900F90CA
:100E9000DF91CF911F910F91FF90EF90DF90CF9056
:100EA000BF90AF909F908F907F906F905F904F908A
:100EB0003F902F900895CF93DF93CDB7DEB728975B
:100EC0000FB6F894DEBF0FBECDBFAC019CEC99838A
:100ED0009A839B839C839D831E821F8218869A011E
:100EE000E1E021153105C9F0611103C0411551053B
:100EF00069F4D901A770BB27AE5FBE4F8C91A1E00A
:100F0000B0E0AC0FBD1FAE0FB11D8C9383E03695E2
:100F100027958A95E1F7EF5FE4CF611102C0452B79
:100F200039F4E62FF0E0EE5FFE4F8081898305C043
:100F3000F0E0EF5FFE4F80818A8329813A814B8107
:100F40005C816D817E818F81988528960FB6F8949B
:100F5000DEBF0FBECDBFDF91CF9108951F93CF931A
:100F6000DF93EC01162F61E00E942704482F112324
:100F700011F0416001C04E7F61E0CE01DF91CF9161
:100F80001F910C94E10390E0FC01E653FF4F249184
:100F9000FC01EA54FF4F8491882399F090E0880F78
:100FA000991FFC01E455FF4FA591B491FC01EE554A
:100FB000FF4F859194918FB7F894EC91E22BEC93CD
:100FC0008FBF08954F925F926F927F928F929F9200
:100FD000AF92BF92CF92DF92EF92FF92CF93DF93C7
:100FE000EC014A015B010E94DD026B017C012401DE
:100FF00035018FE5480E511C611C711C67E1CE0163
:101000000E94270484FD39C06FEFCE010E94CB03FC
:1010100084FF22C040E167E0CE010E94E10360E06E
:10102000CE010E94B80361E0CE010E94B8030E9485
:10103000DD02DC01CB018C199D09AE09BF098815C1
:101040009905AA05BB0540F060E0CE010E94B803F7
:10105000CE010E94DE030FC00E94DD02DC01CB0145
:101060008C199D09AE09BF09481659066A067B0608
:1010700028F681E08F8780E005C060E0CE010E9405
:10108000B80381E0DF91CF91FF90EF90DF90CF9098
:10109000BF90AF909F908F907F906F905F904F9098
:1010A00008958F929F92AF92BF92CF92DF92EF926C
:1010B000FF920F931F93CF93DF93CDB7DEB728979F
:1010C0000FB6F894DEBF0FBECDBF142F0E945B0792
:1010D00069014A015B017C018091FF0182FD06C02C
:1010E00080910402909105020E94570480910402AD
:1010F00090910502112311F060E001C061E00E94AF
:10110000AE070091040210910502C982DA828B8237
:101110009C82AD82BE82EF82F886F8012685AE0100
:101120004F5F5F4F6AE0C8010E94FC03F80126850B
:10113000AE014F5F5F4F60E1C8010E94FC03F80100
:10114000478161E1C8010E94E10300910902E0903A
:101150000402F09005020E94DD024B015C016FEF7A
:10116000C7010E94CB0380FF1EC06FEFC7010E9422
:10117000CB0384FF06C040E167E0C7010E94E103A2
:1011800010C00E94DD02DC01CB0188199909AA096F
:10119000BB0980369105A105B10508F381E0F7018F
:1011A000878710E02EC0F7011781101708F4012F70
:1011B000F7018085811102C0101B01C010E0C7013A
:1011C0000E94B50380EA0E94C4038CEDA82E81E042
:1011D000B82E002339F0F50181915F010E94C4030C
:1011E0000150F7CF112329F080E00E94C403115071
:1011F000F9CFC7010E94B20361E0C7010E94B803A2
:1012000011E08091FF0182FD16C04091D6015091FE
:10121000D7016091D8017091D90180910402909119
:1012200005020E94E207182F60E08091040290916D
:1012300005020E94AE07812F28960FB6F894DEBFF4
:101240000FBECDBFDF91CF911F910F91FF90EF9017
:10125000DF90CF90BF90AF909F908F900895FC014A
:10126000228190818181223030F0292F382F81E036
:10127000838380E02CC0292F382F40914503509163
:101280004603B901642375238091070290910802F7
:101290006817790739F02091420330914303809118
:1012A000440315C0CA018095909563E0880F991F8B
:1012B0006A95E1F782239323892B41F083E0440F61
:1012C000551F8A95E1F747602423352385E0318354
:1012D0002083828381E00895EF92FF920F931F9302
:1012E000CF93DF938C01E0900902F12CE70128975E
:1012F000FC0196818CE6890F833020F0983C09F040
:10130000C7C003C0943909F4DAC08BE6890F823074
:1013100018F0983C09F088C02091AE023091AF02DD
:10132000AE01420F531F4139510518F01092AD0222
:10133000ADC08091AD02882309F40AC1963921F02D
:10134000F80197818913A2C04091AA025091AB0283
:10135000F801848195814817590709F097C0809159
:10136000B0029091B102AE0164EE71E0820F931F62
:101370000E943A0E8091AE029091AF02C80FD91F21
:10138000D093AF02C093AE02F8018681863931F066
:101390008091AD0281508093AD0276C01092AD0273
:1013A000F80187818093AC02833809F486C0A0914C
:1013B000A402B091A5028AE992E08A1B9B0B8C17CC
:1013C0009D0730F18AE0E6EAF2E001900D928A95FD
:1013D000E1F78091A4029091A5026091B002709112
:1013E000B1024091AE025091AF020A960E943A0EAD
:1013F0008091AE029091AF020A962091A4023091A2
:10140000A502820F931F9093A5028093A4023CC073
:1014100080910402909105020E9457048091FF017F
:1014200081608093FF0132C0A091A402B091A50217
:10143000CD018A5092408C0F9D1F8B39910530F55C
:1014400088E0ECEDF1E001900D928A95E1F7E091F2
:10145000A402F091A502D187C0878091A402909147
:10146000A502AE0164EE71E00A960E943A0EF2E027
:10147000EF0EF11C8091A4029091A502E80EF91ED6
:10148000F092A502E092A40281E062C080E060C018
:10149000933851F688E0ECEDF1E0A6EAB2E0019075
:1014A0000D928A95E1F784EE91E09093B1028093DA
:1014B000B002D093AF02C093AE0282E049C0F801FF
:1014C0008781873008F032CF4091AA025091AB0259
:1014D000F801248135814217530749F44091A6024F
:1014E0005091A702208131814217530769F2F8E138
:1014F0008F9FC00111244091A4025091A5022AE9B6
:1015000032E0241B350B281739075CF48091FF016A
:1015100081608093FF0180910402909105020E94F6
:10152000570488E0ECEDF1E0A6EAB2E001900D92FC
:101530008A95E1F7AE0164EE71E08091B00290917E
:10154000B1020E943A0ED093AF02C093AE0220CFF8
:10155000DF91CF911F910F91FF90EF900895CF935E
:10156000DF93CDB7DEB728970FB6F894DEBF0FBE76
:10157000CDBF789484B5826084BD84B5816084BD1C
:1015800085B5826085BD85B5816085BD80916E0021
:10159000816080936E001092810080918100826052
:1015A000809381008091810081608093810080918F
:1015B00080008160809380008091B100846080937E
:1015C000B1008091B00081608093B00080917A007A
:1015D000846080937A0080917A00826080937A00A0
:1015E00080917A00816080937A0080917A0080688F
:1015F00080937A001092C1008AE00E94C3070E9483
:10160000A8028091470390914803209149033091AB
:101610004A038217930711F00E94C3078091490380
:1016200090914A03209147033091480328173907C6
:1016300011F00E94C3070E94A80260E087E493E0D3
:101640000E94B80361E087E493E00E946C0265E0C9
:1016500070E080E090E00E9422014CE060E087E4CE
:1016600093E00E94E1034FE564E087E493E00E9489
:10167000E10366E087E493E00E942704877D182F4A
:1016800010628BE990E0A0E0B0E080935703909364
:101690005803A0935903B0935A03412F66E087E49F
:1016A00093E00E94E10366E087E493E00E94270450
:1016B000181709F461C166E087E493E00E942704EB
:1016C00066E087E493E00E94270445E550E060E08F
:1016D00070E04093570350935803609359037093FD
:1016E0005A03482F477D66E087E493E00E94E103B8
:1016F00066E087E493E00E94270487E493E00E9479
:10170000B50380E50E94C40383E70E94C40387E415
:1017100093E00E94B20340E06DE187E493E00E9411
:10172000E10340E06CE187E493E00E94E103109262
:101730004F0340E767E087E493E00E94E1034CE455
:1017400065E087E493E00E94E10362EE87E493E0C2
:101750000E94CB0387E493E00E94DE0387E493E0DA
:101760000E943E0460E087E493E00E942704482F33
:101770004E7F60E087E493E00E94E10381E090E027
:1017800090930802809307028091040290910502D1
:10179000FC01208131812F3F3105A9F02281338165
:1017A0002F3F310509F0ECC00EC02093440346E002
:1017B000D42EDA94FFEFDF1267C18091040290917A
:1017C00005020E948C04E0914001F091410182E009
:1017D0008083E0913C01F0913D011082E0913E0157
:1017E000F0913F0180E1808310924801E091440133
:1017F000F091450196E09083E0914201F091430120
:10180000908190619083E0914201F0914301908139
:1018100098609083E0914201F0914301908190683B
:101820009083E0914201F091430190819F7D9083EC
:10183000809381001092800093E09093230124E232
:1018400034EF3093220120932101309387002093BD
:10185000860093E19093810024E832E030932001E8
:1018600020931F0191E090936F008093810004E822
:1018700010E0F8016491611116C042E050E06BE1A4
:1018800071E080E391E00E945C0186EFE82EFF2486
:10189000FA949AE9C92ED12C21E1922E30E1832EBF
:1018A0007724739445C080E391E00E94F3010F5FB9
:1018B0001F4F892BF1F6E1CF88E0EAE0F2E0ADECD2
:1018C000B1E001900D928A95E1F70091120210911A
:1018D0001302A8010430110510F043E050E064E168
:1018E00072E084E291E00E943A0EC701801B910BE6
:1018F000A80EB91EB092A502A092A402A601401B98
:10190000510BB8016C5E7D4F8AE092E00E94430E5D
:1019100080912401882379F0A090A402B090A502C0
:10192000FAE0AF16F2E0BF0609F030F60E9462025C
:101930000E949505F1CF8091250190912601892B78
:1019400019F480928100E8CF709223011092220155
:1019500010922101109287001092860090928100CF
:1019600010928100109285001092840080912301D2
:10197000806180938100D0CF81E080934D039BCE26
:1019800043E465E00E94E10360E0809104029091ED
:1019900005020E94AE0700910402109105026DE15C
:1019A000C8010E942704482F44606DE1C8010E94CD
:1019B000E1036CE1C8010E942704482F4F636CE1EA
:1019C000C8010E94E10381E0F8018087809107024D
:1019D0009091080266E070E00E941B0E482F440FB1
:1019E0004B5FF0E14F9FA0011124456064E08091BE
:1019F0000402909105020E94E10389E190E0A0E0D9
:101A0000B0E08093D6019093D701A093D801B09312
:101A1000D9018BE490E09093DB018093DA0120916F
:101A200007023091080240E08FEF9FEFB901682371
:101A30007923672B39F0E3E0880F991FEA95E1F7E6
:101A40004F5FF4CF409306028095909590934603A4
:101A50008093450373E0969587957A95E1F7A90100
:101A6000482359235093430340934203009709F4BA
:101A70009CCE53E0369527955A95E1F763E096950D
:101A800087956A95E1F7F2CF6D2D81E090E00E9495
:101A90005B07009104021091050229833A834B836E
:101AA0005C836D837E838F839887ED2CF12CD1101E
:101AB0000BC0F801468550E0BE016F5F7F4FC80143
:101AC00009960E943A0E03C0F1E0DF1207C0F70149
:101AD000E258FF4F6491F801268505C0F701E258EE
:101AE000FF4F649121E0AE014F5F5F4FC8010E943C
:101AF000FC03F701E858FF4F6491F8014781C801E2
:101B00000E94E10362E0C8010E942704F701EE5839
:101B1000FF4FE49141E050E001C0440FEA95EAF73D
:101B2000482B62E0C8010E94E10343CEE0E3F1E00C
:101B30001382128288EE93E0A0E0B0E08483958364
:101B4000A683B7838DE091E09183808385EC90E05C
:101B50009587848784EC90E09787868780EC90E077
:101B6000918B808B81EC90E0938B828B82EC90E068
:101B7000958B848B86EC90E0978B868B118E128EE2
:101B8000138E148EE7E4F3E087E090E09183808386
:101B900088E090E093838283168280E287831086B8
:101BA00085E0868785E090E0A0E0B0E0848B958BAF
:101BB000A68BB78B1186A5EDB1E0D096FC93EE9382
:101BC0009F978AE092E09093A5028093A40282EB13
:101BD00092E09093B1028093B00286EA92E09896E8
:101BE0009C938E9397979B961D921D921D921C928B
:101BF0009E979A961C929A9799961C9299971C92E6
:101C0000EDECF1E0138212828091000190910101CC
:101C1000958384831682EFE5F3E0138212829C01A0
:101C20002E5F3F4F30930101209300010196958371
:101C3000848316820895AA1BBB1B51E107C0AA1F0B
:101C4000BB1FA617B70710F0A61BB70B881F991F5D
:101C50005A95A9F780959095BC01CD010895EE0F96
:101C6000FF1F0590F491E02D099481E090E0F89435
:101C70000C94550EFB01DC0102C001900D92415005
:101C80005040D8F708956817790768F4FB01DC0124
:101C9000E40FF51FA40FB51F02C002900E92415031
:0E1CA0005040D8F708950C943A0EF894FFCFF8
:101CAE000100C33C33CE3EE3EC00000000F3015CC8
:0E1CBE00018A014002BB019901AD010D0A002F
:107E0000112484B714BE81FFF0D085E080938100F7
:107E100082E08093C00088E18093C10086E0809377
:107E2000C20080E18093C4008EE0C9D0259A86E02C
:107E300020E33CEF91E0309385002093840096BBD3
:107E4000B09BFECF1D9AA8958150A9F7CC24DD24C4
:107E500088248394B5E0AB2EA1E19A2EF3E0BF2EE7
:107E6000A2D0813461F49FD0082FAFD0023811F036
:107E7000013811F484E001C083E08DD089C08234E0
:107E800011F484E103C0853419F485E0A6D080C0E4
:107E9000853579F488D0E82EFF2485D0082F10E0AE
:107EA000102F00270E291F29000F111F8ED06801E7
:107EB0006FC0863521F484E090D080E0DECF843638
:107EC00009F040C070D06FD0082F6DD080E0C81688
:107ED00080E7D80618F4F601B7BEE895C0E0D1E017
:107EE00062D089930C17E1F7F0E0CF16F0E7DF06D8
:107EF00018F0F601B7BEE89568D007B600FCFDCFD4
:107F0000A601A0E0B1E02C9130E011968C91119780
:107F100090E0982F8827822B932B1296FA010C0160
:107F200087BEE89511244E5F5F4FF1E0A038BF0790
:107F300051F7F601A7BEE89507B600FCFDCF97BE46
:107F4000E89526C08437B1F42ED02DD0F82E2BD052
:107F50003CD0F601EF2C8F010F5F1F4F84911BD097
:107F6000EA94F801C1F70894C11CD11CFA94CF0C13
:107F7000D11C0EC0853739F428D08EE10CD085E9AC
:107F80000AD08FE07ACF813511F488E018D01DD067
:107F900080E101D065CF982F8091C00085FFFCCF94
:107FA0009093C60008958091C00087FFFCCF809118
:107FB000C00084FD01C0A8958091C6000895E0E648
:107FC000F0E098E1908380830895EDDF803219F02E
:107FD00088E0F5DFFFCF84E1DECF1F93182FE3DFCA
:107FE0001150E9F7F2DF1F91089580E0E8DFEE27F6
:047FF000FF270994CA
:027FFE00040479
:0400000300007E007B
:00000001FF
